{
  "_format": "hh-sol-artifact-1",
  "contractName": "TimelockControllerUpgradeable",
  "sourceName": "@openzeppelin/contracts-upgradeable/governance/TimelockControllerUpgradeable.sol",
  "abi": [
    {
      "anonymous": false,
      "inputs": [
        {
          "indexed": true,
          "internalType": "bytes32",
          "name": "id",
          "type": "bytes32"
        },
        {
          "indexed": true,
          "internalType": "uint256",
          "name": "index",
          "type": "uint256"
        },
        {
          "indexed": false,
          "internalType": "address",
          "name": "target",
          "type": "address"
        },
        {
          "indexed": false,
          "internalType": "uint256",
          "name": "value",
          "type": "uint256"
        },
        {
          "indexed": false,
          "internalType": "bytes",
          "name": "data",
          "type": "bytes"
        }
      ],
      "name": "CallExecuted",
      "type": "event"
    },
    {
      "anonymous": false,
      "inputs": [
        {
          "indexed": true,
          "internalType": "bytes32",
          "name": "id",
          "type": "bytes32"
        },
        {
          "indexed": true,
          "internalType": "uint256",
          "name": "index",
          "type": "uint256"
        },
        {
          "indexed": false,
          "internalType": "address",
          "name": "target",
          "type": "address"
        },
        {
          "indexed": false,
          "internalType": "uint256",
          "name": "value",
          "type": "uint256"
        },
        {
          "indexed": false,
          "internalType": "bytes",
          "name": "data",
          "type": "bytes"
        },
        {
          "indexed": false,
          "internalType": "bytes32",
          "name": "predecessor",
          "type": "bytes32"
        },
        {
          "indexed": false,
          "internalType": "uint256",
          "name": "delay",
          "type": "uint256"
        }
      ],
      "name": "CallScheduled",
      "type": "event"
    },
    {
      "anonymous": false,
      "inputs": [
        {
          "indexed": true,
          "internalType": "bytes32",
          "name": "id",
          "type": "bytes32"
        }
      ],
      "name": "Cancelled",
      "type": "event"
    },
    {
      "anonymous": false,
      "inputs": [
        {
          "indexed": false,
          "internalType": "uint8",
          "name": "version",
          "type": "uint8"
        }
      ],
      "name": "Initialized",
      "type": "event"
    },
    {
      "anonymous": false,
      "inputs": [
        {
          "indexed": false,
          "internalType": "uint256",
          "name": "oldDuration",
          "type": "uint256"
        },
        {
          "indexed": false,
          "internalType": "uint256",
          "name": "newDuration",
          "type": "uint256"
        }
      ],
      "name": "MinDelayChange",
      "type": "event"
    },
    {
      "anonymous": false,
      "inputs": [
        {
          "indexed": true,
          "internalType": "bytes32",
          "name": "role",
          "type": "bytes32"
        },
        {
          "indexed": true,
          "internalType": "bytes32",
          "name": "previousAdminRole",
          "type": "bytes32"
        },
        {
          "indexed": true,
          "internalType": "bytes32",
          "name": "newAdminRole",
          "type": "bytes32"
        }
      ],
      "name": "RoleAdminChanged",
      "type": "event"
    },
    {
      "anonymous": false,
      "inputs": [
        {
          "indexed": true,
          "internalType": "bytes32",
          "name": "role",
          "type": "bytes32"
        },
        {
          "indexed": true,
          "internalType": "address",
          "name": "account",
          "type": "address"
        },
        {
          "indexed": true,
          "internalType": "address",
          "name": "sender",
          "type": "address"
        }
      ],
      "name": "RoleGranted",
      "type": "event"
    },
    {
      "anonymous": false,
      "inputs": [
        {
          "indexed": true,
          "internalType": "bytes32",
          "name": "role",
          "type": "bytes32"
        },
        {
          "indexed": true,
          "internalType": "address",
          "name": "account",
          "type": "address"
        },
        {
          "indexed": true,
          "internalType": "address",
          "name": "sender",
          "type": "address"
        }
      ],
      "name": "RoleRevoked",
      "type": "event"
    },
    {
      "inputs": [],
      "name": "CANCELLER_ROLE",
      "outputs": [
        {
          "internalType": "bytes32",
          "name": "",
          "type": "bytes32"
        }
      ],
      "stateMutability": "view",
      "type": "function"
    },
    {
      "inputs": [],
      "name": "DEFAULT_ADMIN_ROLE",
      "outputs": [
        {
          "internalType": "bytes32",
          "name": "",
          "type": "bytes32"
        }
      ],
      "stateMutability": "view",
      "type": "function"
    },
    {
      "inputs": [],
      "name": "EXECUTOR_ROLE",
      "outputs": [
        {
          "internalType": "bytes32",
          "name": "",
          "type": "bytes32"
        }
      ],
      "stateMutability": "view",
      "type": "function"
    },
    {
      "inputs": [],
      "name": "PROPOSER_ROLE",
      "outputs": [
        {
          "internalType": "bytes32",
          "name": "",
          "type": "bytes32"
        }
      ],
      "stateMutability": "view",
      "type": "function"
    },
    {
      "inputs": [],
      "name": "TIMELOCK_ADMIN_ROLE",
      "outputs": [
        {
          "internalType": "bytes32",
          "name": "",
          "type": "bytes32"
        }
      ],
      "stateMutability": "view",
      "type": "function"
    },
    {
      "inputs": [
        {
          "internalType": "bytes32",
          "name": "id",
          "type": "bytes32"
        }
      ],
      "name": "cancel",
      "outputs": [],
      "stateMutability": "nonpayable",
      "type": "function"
    },
    {
      "inputs": [
        {
          "internalType": "address",
          "name": "target",
          "type": "address"
        },
        {
          "internalType": "uint256",
          "name": "value",
          "type": "uint256"
        },
        {
          "internalType": "bytes",
          "name": "data",
          "type": "bytes"
        },
        {
          "internalType": "bytes32",
          "name": "predecessor",
          "type": "bytes32"
        },
        {
          "internalType": "bytes32",
          "name": "salt",
          "type": "bytes32"
        }
      ],
      "name": "execute",
      "outputs": [],
      "stateMutability": "payable",
      "type": "function"
    },
    {
      "inputs": [
        {
          "internalType": "address[]",
          "name": "targets",
          "type": "address[]"
        },
        {
          "internalType": "uint256[]",
          "name": "values",
          "type": "uint256[]"
        },
        {
          "internalType": "bytes[]",
          "name": "payloads",
          "type": "bytes[]"
        },
        {
          "internalType": "bytes32",
          "name": "predecessor",
          "type": "bytes32"
        },
        {
          "internalType": "bytes32",
          "name": "salt",
          "type": "bytes32"
        }
      ],
      "name": "executeBatch",
      "outputs": [],
      "stateMutability": "payable",
      "type": "function"
    },
    {
      "inputs": [],
      "name": "getMinDelay",
      "outputs": [
        {
          "internalType": "uint256",
          "name": "duration",
          "type": "uint256"
        }
      ],
      "stateMutability": "view",
      "type": "function"
    },
    {
      "inputs": [
        {
          "internalType": "bytes32",
          "name": "role",
          "type": "bytes32"
        }
      ],
      "name": "getRoleAdmin",
      "outputs": [
        {
          "internalType": "bytes32",
          "name": "",
          "type": "bytes32"
        }
      ],
      "stateMutability": "view",
      "type": "function"
    },
    {
      "inputs": [
        {
          "internalType": "bytes32",
          "name": "id",
          "type": "bytes32"
        }
      ],
      "name": "getTimestamp",
      "outputs": [
        {
          "internalType": "uint256",
          "name": "timestamp",
          "type": "uint256"
        }
      ],
      "stateMutability": "view",
      "type": "function"
    },
    {
      "inputs": [
        {
          "internalType": "bytes32",
          "name": "role",
          "type": "bytes32"
        },
        {
          "internalType": "address",
          "name": "account",
          "type": "address"
        }
      ],
      "name": "grantRole",
      "outputs": [],
      "stateMutability": "nonpayable",
      "type": "function"
    },
    {
      "inputs": [
        {
          "internalType": "bytes32",
          "name": "role",
          "type": "bytes32"
        },
        {
          "internalType": "address",
          "name": "account",
          "type": "address"
        }
      ],
      "name": "hasRole",
      "outputs": [
        {
          "internalType": "bool",
          "name": "",
          "type": "bool"
        }
      ],
      "stateMutability": "view",
      "type": "function"
    },
    {
      "inputs": [
        {
          "internalType": "address",
          "name": "target",
          "type": "address"
        },
        {
          "internalType": "uint256",
          "name": "value",
          "type": "uint256"
        },
        {
          "internalType": "bytes",
          "name": "data",
          "type": "bytes"
        },
        {
          "internalType": "bytes32",
          "name": "predecessor",
          "type": "bytes32"
        },
        {
          "internalType": "bytes32",
          "name": "salt",
          "type": "bytes32"
        }
      ],
      "name": "hashOperation",
      "outputs": [
        {
          "internalType": "bytes32",
          "name": "hash",
          "type": "bytes32"
        }
      ],
      "stateMutability": "pure",
      "type": "function"
    },
    {
      "inputs": [
        {
          "internalType": "address[]",
          "name": "targets",
          "type": "address[]"
        },
        {
          "internalType": "uint256[]",
          "name": "values",
          "type": "uint256[]"
        },
        {
          "internalType": "bytes[]",
          "name": "payloads",
          "type": "bytes[]"
        },
        {
          "internalType": "bytes32",
          "name": "predecessor",
          "type": "bytes32"
        },
        {
          "internalType": "bytes32",
          "name": "salt",
          "type": "bytes32"
        }
      ],
      "name": "hashOperationBatch",
      "outputs": [
        {
          "internalType": "bytes32",
          "name": "hash",
          "type": "bytes32"
        }
      ],
      "stateMutability": "pure",
      "type": "function"
    },
    {
      "inputs": [
        {
          "internalType": "bytes32",
          "name": "id",
          "type": "bytes32"
        }
      ],
      "name": "isOperation",
      "outputs": [
        {
          "internalType": "bool",
          "name": "pending",
          "type": "bool"
        }
      ],
      "stateMutability": "view",
      "type": "function"
    },
    {
      "inputs": [
        {
          "internalType": "bytes32",
          "name": "id",
          "type": "bytes32"
        }
      ],
      "name": "isOperationDone",
      "outputs": [
        {
          "internalType": "bool",
          "name": "done",
          "type": "bool"
        }
      ],
      "stateMutability": "view",
      "type": "function"
    },
    {
      "inputs": [
        {
          "internalType": "bytes32",
          "name": "id",
          "type": "bytes32"
        }
      ],
      "name": "isOperationPending",
      "outputs": [
        {
          "internalType": "bool",
          "name": "pending",
          "type": "bool"
        }
      ],
      "stateMutability": "view",
      "type": "function"
    },
    {
      "inputs": [
        {
          "internalType": "bytes32",
          "name": "id",
          "type": "bytes32"
        }
      ],
      "name": "isOperationReady",
      "outputs": [
        {
          "internalType": "bool",
          "name": "ready",
          "type": "bool"
        }
      ],
      "stateMutability": "view",
      "type": "function"
    },
    {
      "inputs": [
        {
          "internalType": "address",
          "name": "",
          "type": "address"
        },
        {
          "internalType": "address",
          "name": "",
          "type": "address"
        },
        {
          "internalType": "uint256[]",
          "name": "",
          "type": "uint256[]"
        },
        {
          "internalType": "uint256[]",
          "name": "",
          "type": "uint256[]"
        },
        {
          "internalType": "bytes",
          "name": "",
          "type": "bytes"
        }
      ],
      "name": "onERC1155BatchReceived",
      "outputs": [
        {
          "internalType": "bytes4",
          "name": "",
          "type": "bytes4"
        }
      ],
      "stateMutability": "nonpayable",
      "type": "function"
    },
    {
      "inputs": [
        {
          "internalType": "address",
          "name": "",
          "type": "address"
        },
        {
          "internalType": "address",
          "name": "",
          "type": "address"
        },
        {
          "internalType": "uint256",
          "name": "",
          "type": "uint256"
        },
        {
          "internalType": "uint256",
          "name": "",
          "type": "uint256"
        },
        {
          "internalType": "bytes",
          "name": "",
          "type": "bytes"
        }
      ],
      "name": "onERC1155Received",
      "outputs": [
        {
          "internalType": "bytes4",
          "name": "",
          "type": "bytes4"
        }
      ],
      "stateMutability": "nonpayable",
      "type": "function"
    },
    {
      "inputs": [
        {
          "internalType": "address",
          "name": "",
          "type": "address"
        },
        {
          "internalType": "address",
          "name": "",
          "type": "address"
        },
        {
          "internalType": "uint256",
          "name": "",
          "type": "uint256"
        },
        {
          "internalType": "bytes",
          "name": "",
          "type": "bytes"
        }
      ],
      "name": "onERC721Received",
      "outputs": [
        {
          "internalType": "bytes4",
          "name": "",
          "type": "bytes4"
        }
      ],
      "stateMutability": "nonpayable",
      "type": "function"
    },
    {
      "inputs": [
        {
          "internalType": "bytes32",
          "name": "role",
          "type": "bytes32"
        },
        {
          "internalType": "address",
          "name": "account",
          "type": "address"
        }
      ],
      "name": "renounceRole",
      "outputs": [],
      "stateMutability": "nonpayable",
      "type": "function"
    },
    {
      "inputs": [
        {
          "internalType": "bytes32",
          "name": "role",
          "type": "bytes32"
        },
        {
          "internalType": "address",
          "name": "account",
          "type": "address"
        }
      ],
      "name": "revokeRole",
      "outputs": [],
      "stateMutability": "nonpayable",
      "type": "function"
    },
    {
      "inputs": [
        {
          "internalType": "address",
          "name": "target",
          "type": "address"
        },
        {
          "internalType": "uint256",
          "name": "value",
          "type": "uint256"
        },
        {
          "internalType": "bytes",
          "name": "data",
          "type": "bytes"
        },
        {
          "internalType": "bytes32",
          "name": "predecessor",
          "type": "bytes32"
        },
        {
          "internalType": "bytes32",
          "name": "salt",
          "type": "bytes32"
        },
        {
          "internalType": "uint256",
          "name": "delay",
          "type": "uint256"
        }
      ],
      "name": "schedule",
      "outputs": [],
      "stateMutability": "nonpayable",
      "type": "function"
    },
    {
      "inputs": [
        {
          "internalType": "address[]",
          "name": "targets",
          "type": "address[]"
        },
        {
          "internalType": "uint256[]",
          "name": "values",
          "type": "uint256[]"
        },
        {
          "internalType": "bytes[]",
          "name": "payloads",
          "type": "bytes[]"
        },
        {
          "internalType": "bytes32",
          "name": "predecessor",
          "type": "bytes32"
        },
        {
          "internalType": "bytes32",
          "name": "salt",
          "type": "bytes32"
        },
        {
          "internalType": "uint256",
          "name": "delay",
          "type": "uint256"
        }
      ],
      "name": "scheduleBatch",
      "outputs": [],
      "stateMutability": "nonpayable",
      "type": "function"
    },
    {
      "inputs": [
        {
          "internalType": "bytes4",
          "name": "interfaceId",
          "type": "bytes4"
        }
      ],
      "name": "supportsInterface",
      "outputs": [
        {
          "internalType": "bool",
          "name": "",
          "type": "bool"
        }
      ],
      "stateMutability": "view",
      "type": "function"
    },
    {
      "inputs": [
        {
          "internalType": "uint256",
          "name": "newDelay",
          "type": "uint256"
        }
      ],
      "name": "updateDelay",
      "outputs": [],
      "stateMutability": "nonpayable",
      "type": "function"
    },
    {
      "stateMutability": "payable",
      "type": "receive"
    }
  ],
  "bytecode": "0x608060405234801561001057600080fd5b50613270806100206000396000f3fe6080604052600436106101bb5760003560e01c80638065657f116100ec578063bc197c811161008a578063d547741f11610064578063d547741f1461068c578063e38335e5146106b5578063f23a6e61146106d1578063f27a0c921461070e576101c2565b8063bc197c81146105e9578063c4d252f514610626578063d45c44351461064f576101c2565b806391d14854116100c657806391d1485414610519578063a217fddf14610556578063b08e51c014610581578063b1c5f427146105ac576101c2565b80638065657f146104885780638f2a0bb0146104c55780638f61f4f5146104ee576101c2565b8063248a9ca31161015957806331d507501161013357806331d50750146103bc57806336568abe146103f9578063584b153e1461042257806364d623531461045f576101c2565b8063248a9ca3146103195780632ab0f529146103565780632f2ff15d14610393576101c2565b80630d3cf6fc116101955780630d3cf6fc14610258578063134008d31461028357806313bc9f201461029f578063150b7a02146102dc576101c2565b806301d5062a146101c757806301ffc9a7146101f057806307bd02651461022d576101c2565b366101c257005b600080fd5b3480156101d357600080fd5b506101ee60048036038101906101e99190611a40565b610739565b005b3480156101fc57600080fd5b5061021760048036038101906102129190611b47565b6107ce565b6040516102249190611b8f565b60405180910390f35b34801561023957600080fd5b50610242610848565b60405161024f9190611bb9565b60405180910390f35b34801561026457600080fd5b5061026d61086c565b60405161027a9190611bb9565b60405180910390f35b61029d60048036038101906102989190611bd4565b610890565b005b3480156102ab57600080fd5b506102c660048036038101906102c19190611c6e565b610910565b6040516102d39190611b8f565b60405180910390f35b3480156102e857600080fd5b5061030360048036038101906102fe9190611ddc565b610936565b6040516103109190611e6e565b60405180910390f35b34801561032557600080fd5b50610340600480360381019061033b9190611c6e565b61094a565b60405161034d9190611bb9565b60405180910390f35b34801561036257600080fd5b5061037d60048036038101906103789190611c6e565b61096a565b60405161038a9190611b8f565b60405180910390f35b34801561039f57600080fd5b506103ba60048036038101906103b59190611e89565b61097f565b005b3480156103c857600080fd5b506103e360048036038101906103de9190611c6e565b6109a0565b6040516103f09190611b8f565b60405180910390f35b34801561040557600080fd5b50610420600480360381019061041b9190611e89565b6109b4565b005b34801561042e57600080fd5b5061044960048036038101906104449190611c6e565b610a37565b6040516104569190611b8f565b60405180910390f35b34801561046b57600080fd5b5061048660048036038101906104819190611ec9565b610a4c565b005b34801561049457600080fd5b506104af60048036038101906104aa9190611bd4565b610aff565b6040516104bc9190611bb9565b60405180910390f35b3480156104d157600080fd5b506104ec60048036038101906104e79190611ff8565b610b3e565b005b3480156104fa57600080fd5b50610503610ce9565b6040516105109190611bb9565b60405180910390f35b34801561052557600080fd5b50610540600480360381019061053b9190611e89565b610d0d565b60405161054d9190611b8f565b60405180910390f35b34801561056257600080fd5b5061056b610d78565b6040516105789190611bb9565b60405180910390f35b34801561058d57600080fd5b50610596610d7f565b6040516105a39190611bb9565b60405180910390f35b3480156105b857600080fd5b506105d360048036038101906105ce91906120e7565b610da3565b6040516105e09190611bb9565b60405180910390f35b3480156105f557600080fd5b50610610600480360381019061060b9190612286565b610de8565b60405161061d9190611e6e565b60405180910390f35b34801561063257600080fd5b5061064d60048036038101906106489190611c6e565b610dfd565b005b34801561065b57600080fd5b5061067660048036038101906106719190611c6e565b610eb7565b6040516106839190612364565b60405180910390f35b34801561069857600080fd5b506106b360048036038101906106ae9190611e89565b610ed4565b005b6106cf60048036038101906106ca91906120e7565b610ef5565b005b3480156106dd57600080fd5b506106f860048036038101906106f3919061237f565b61108b565b6040516107059190611e6e565b60405180910390f35b34801561071a57600080fd5b506107236110a0565b6040516107309190612364565b60405180910390f35b7fb09aa5aeb3702cfd50b6b62bc4532604938f21248a27a1d5ca736082b6819cc1610763816110aa565b6000610773898989898989610aff565b905061077f81846110be565b6000817f4cf4410cc57040e44862ef0f45f3dd5a5e02db8eb8add648d4b0e236f1d07dca8b8b8b8b8b8a6040516107bb96959493929190612463565b60405180910390a3505050505050505050565b60007f4e2312e0000000000000000000000000000000000000000000000000000000007bffffffffffffffffffffffffffffffffffffffffffffffffffffffff1916827bffffffffffffffffffffffffffffffffffffffffffffffffffffffff19161480610841575061084082611178565b5b9050919050565b7fd8aa0f3194971a2a116679f7c2090f6939c8d4e01a2a8d7e41d55e5351469e6381565b7f5f58e3a2316349923ce3780f8d587db2d72378aed66a8261c916544fa6846ca581565b7fd8aa0f3194971a2a116679f7c2090f6939c8d4e01a2a8d7e41d55e5351469e636108bc816000610d0d565b6108d2576108d1816108cc6111f2565b6111fa565b5b60006108e2888888888888610aff565b90506108ee8185611297565b6108fd8160008a8a8a8a611338565b61090681611430565b5050505050505050565b60008061091c83610eb7565b905060018111801561092e5750428111155b915050919050565b600063150b7a0260e01b9050949350505050565b600060656000838152602001908152602001600020600101549050919050565b6000600161097783610eb7565b149050919050565b6109888261094a565b610991816110aa565b61099b8383611494565b505050565b6000806109ac83610eb7565b119050919050565b6109bc6111f2565b73ffffffffffffffffffffffffffffffffffffffff168173ffffffffffffffffffffffffffffffffffffffff1614610a29576040517f08c379a0000000000000000000000000000000000000000000000000000000008152600401610a2090612542565b60405180910390fd5b610a338282611575565b5050565b60006001610a4483610eb7565b119050919050565b3073ffffffffffffffffffffffffffffffffffffffff163373ffffffffffffffffffffffffffffffffffffffff1614610aba576040517f08c379a0000000000000000000000000000000000000000000000000000000008152600401610ab1906125d4565b60405180910390fd5b7f11c24f4ead16507c69ac467fbd5e4eed5fb5c699626d2cc6d66421df253886d560985482604051610aed9291906125f4565b60405180910390a18060988190555050565b6000868686868686604051602001610b1c9695949392919061261d565b6040516020818303038152906040528051906020012090509695505050505050565b7fb09aa5aeb3702cfd50b6b62bc4532604938f21248a27a1d5ca736082b6819cc1610b68816110aa565b878790508a8a905014610bb0576040517f08c379a0000000000000000000000000000000000000000000000000000000008152600401610ba7906126eb565b60405180910390fd5b858590508a8a905014610bf8576040517f08c379a0000000000000000000000000000000000000000000000000000000008152600401610bef906126eb565b60405180910390fd5b6000610c0a8b8b8b8b8b8b8b8b610da3565b9050610c1681846110be565b60005b8b8b9050811015610cdb5780827f4cf4410cc57040e44862ef0f45f3dd5a5e02db8eb8add648d4b0e236f1d07dca8e8e85818110610c5a57610c5961270b565b5b9050602002016020810190610c6f919061273a565b8d8d86818110610c8257610c8161270b565b5b905060200201358c8c87818110610c9c57610c9b61270b565b5b9050602002810190610cae9190612776565b8c8b604051610cc296959493929190612463565b60405180910390a380610cd490612808565b9050610c19565b505050505050505050505050565b7fb09aa5aeb3702cfd50b6b62bc4532604938f21248a27a1d5ca736082b6819cc181565b60006065600084815260200190815260200160002060000160008373ffffffffffffffffffffffffffffffffffffffff1673ffffffffffffffffffffffffffffffffffffffff16815260200190815260200160002060009054906101000a900460ff16905092915050565b6000801b81565b7ffd643c72710c63c0180259aba6b2d05451e3591a24e58b62239378085726f78381565b60008888888888888888604051602001610dc4989796959493929190612aea565b60405160208183030381529060405280519060200120905098975050505050505050565b600063bc197c8160e01b905095945050505050565b7ffd643c72710c63c0180259aba6b2d05451e3591a24e58b62239378085726f783610e27816110aa565b610e3082610a37565b610e6f576040517f08c379a0000000000000000000000000000000000000000000000000000000008152600401610e6690612bca565b60405180910390fd5b6097600083815260200190815260200160002060009055817fbaa1eb22f2a492ba1a5fea61b8df4d27c6c8b5f3971e63bb58fa14ff72eedb7060405160405180910390a25050565b600060976000838152602001908152602001600020549050919050565b610edd8261094a565b610ee6816110aa565b610ef08383611575565b505050565b7fd8aa0f3194971a2a116679f7c2090f6939c8d4e01a2a8d7e41d55e5351469e63610f21816000610d0d565b610f3757610f3681610f316111f2565b6111fa565b5b868690508989905014610f7f576040517f08c379a0000000000000000000000000000000000000000000000000000000008152600401610f76906126eb565b60405180910390fd5b848490508989905014610fc7576040517f08c379a0000000000000000000000000000000000000000000000000000000008152600401610fbe906126eb565b60405180910390fd5b6000610fd98a8a8a8a8a8a8a8a610da3565b9050610fe58185611297565b60005b8a8a90508110156110755761106482828d8d8581811061100b5761100a61270b565b5b9050602002016020810190611020919061273a565b8c8c868181106110335761103261270b565b5b905060200201358b8b8781811061104d5761104c61270b565b5b905060200281019061105f9190612776565b611338565b8061106e90612808565b9050610fe8565b5061107f81611430565b50505050505050505050565b600063f23a6e6160e01b905095945050505050565b6000609854905090565b6110bb816110b66111f2565b6111fa565b50565b6110c7826109a0565b15611107576040517f08c379a00000000000000000000000000000000000000000000000000000000081526004016110fe90612c5c565b60405180910390fd5b61110f6110a0565b811015611151576040517f08c379a000000000000000000000000000000000000000000000000000000000815260040161114890612cee565b60405180910390fd5b804261115d9190612d0e565b60976000848152602001908152602001600020819055505050565b60007f7965db0b000000000000000000000000000000000000000000000000000000007bffffffffffffffffffffffffffffffffffffffffffffffffffffffff1916827bffffffffffffffffffffffffffffffffffffffffffffffffffffffff191614806111eb57506111ea82611657565b5b9050919050565b600033905090565b6112048282610d0d565b611293576112298173ffffffffffffffffffffffffffffffffffffffff1660146116c1565b6112378360001c60206116c1565b604051602001611248929190612e76565b6040516020818303038152906040526040517f08c379a000000000000000000000000000000000000000000000000000000000815260040161128a9190612ee9565b60405180910390fd5b5050565b6112a082610910565b6112df576040517f08c379a00000000000000000000000000000000000000000000000000000000081526004016112d690612f7d565b60405180910390fd5b6000801b8114806112f557506112f48161096a565b5b611334576040517f08c379a000000000000000000000000000000000000000000000000000000000815260040161132b9061300f565b60405180910390fd5b5050565b60008473ffffffffffffffffffffffffffffffffffffffff1684848460405161136292919061305f565b60006040518083038185875af1925050503d806000811461139f576040519150601f19603f3d011682016040523d82523d6000602084013e6113a4565b606091505b50509050806113e8576040517f08c379a00000000000000000000000000000000000000000000000000000000081526004016113df906130ea565b60405180910390fd5b85877fc2617efa69bab66782fa219543714338489c4e9e178271560a91b82c3f612b588787878760405161141f949392919061310a565b60405180910390a350505050505050565b61143981610910565b611478576040517f08c379a000000000000000000000000000000000000000000000000000000000815260040161146f90612f7d565b60405180910390fd5b6001609760008381526020019081526020016000208190555050565b61149e8282610d0d565b6115715760016065600084815260200190815260200160002060000160008373ffffffffffffffffffffffffffffffffffffffff1673ffffffffffffffffffffffffffffffffffffffff16815260200190815260200160002060006101000a81548160ff0219169083151502179055506115166111f2565b73ffffffffffffffffffffffffffffffffffffffff168173ffffffffffffffffffffffffffffffffffffffff16837f2f8788117e7eff1d82e926ec794901d17c78024a50270940304540a733656f0d60405160405180910390a45b5050565b61157f8282610d0d565b156116535760006065600084815260200190815260200160002060000160008373ffffffffffffffffffffffffffffffffffffffff1673ffffffffffffffffffffffffffffffffffffffff16815260200190815260200160002060006101000a81548160ff0219169083151502179055506115f86111f2565b73ffffffffffffffffffffffffffffffffffffffff168173ffffffffffffffffffffffffffffffffffffffff16837ff6391f5c32d9c69d2a47ea670b442974b53935d1edc7fd64eb21e047a839171b60405160405180910390a45b5050565b60007f01ffc9a7000000000000000000000000000000000000000000000000000000007bffffffffffffffffffffffffffffffffffffffffffffffffffffffff1916827bffffffffffffffffffffffffffffffffffffffffffffffffffffffff1916149050919050565b6060600060028360026116d4919061314a565b6116de9190612d0e565b67ffffffffffffffff8111156116f7576116f6611cb1565b5b6040519080825280601f01601f1916602001820160405280156117295781602001600182028036833780820191505090505b5090507f3000000000000000000000000000000000000000000000000000000000000000816000815181106117615761176061270b565b5b60200101907effffffffffffffffffffffffffffffffffffffffffffffffffffffffffffff1916908160001a9053507f7800000000000000000000000000000000000000000000000000000000000000816001815181106117c5576117c461270b565b5b60200101907effffffffffffffffffffffffffffffffffffffffffffffffffffffffffffff1916908160001a90535060006001846002611805919061314a565b61180f9190612d0e565b90505b60018111156118af577f3031323334353637383961626364656600000000000000000000000000000000600f8616601081106118515761185061270b565b5b1a60f81b8282815181106118685761186761270b565b5b60200101907effffffffffffffffffffffffffffffffffffffffffffffffffffffffffffff1916908160001a905350600485901c9450806118a8906131a4565b9050611812565b50600084146118f3576040517f08c379a00000000000000000000000000000000000000000000000000000000081526004016118ea9061321a565b60405180910390fd5b8091505092915050565b6000604051905090565b600080fd5b600080fd5b600073ffffffffffffffffffffffffffffffffffffffff82169050919050565b600061193c82611911565b9050919050565b61194c81611931565b811461195757600080fd5b50565b60008135905061196981611943565b92915050565b6000819050919050565b6119828161196f565b811461198d57600080fd5b50565b60008135905061199f81611979565b92915050565b600080fd5b600080fd5b600080fd5b60008083601f8401126119ca576119c96119a5565b5b8235905067ffffffffffffffff8111156119e7576119e66119aa565b5b602083019150836001820283011115611a0357611a026119af565b5b9250929050565b6000819050919050565b611a1d81611a0a565b8114611a2857600080fd5b50565b600081359050611a3a81611a14565b92915050565b600080600080600080600060c0888a031215611a5f57611a5e611907565b5b6000611a6d8a828b0161195a565b9750506020611a7e8a828b01611990565b965050604088013567ffffffffffffffff811115611a9f57611a9e61190c565b5b611aab8a828b016119b4565b95509550506060611abe8a828b01611a2b565b9350506080611acf8a828b01611a2b565b92505060a0611ae08a828b01611990565b91505092959891949750929550565b60007fffffffff0000000000000000000000000000000000000000000000000000000082169050919050565b611b2481611aef565b8114611b2f57600080fd5b50565b600081359050611b4181611b1b565b92915050565b600060208284031215611b5d57611b5c611907565b5b6000611b6b84828501611b32565b91505092915050565b60008115159050919050565b611b8981611b74565b82525050565b6000602082019050611ba46000830184611b80565b92915050565b611bb381611a0a565b82525050565b6000602082019050611bce6000830184611baa565b92915050565b60008060008060008060a08789031215611bf157611bf0611907565b5b6000611bff89828a0161195a565b9650506020611c1089828a01611990565b955050604087013567ffffffffffffffff811115611c3157611c3061190c565b5b611c3d89828a016119b4565b94509450506060611c5089828a01611a2b565b9250506080611c6189828a01611a2b565b9150509295509295509295565b600060208284031215611c8457611c83611907565b5b6000611c9284828501611a2b565b91505092915050565b600080fd5b6000601f19601f8301169050919050565b7f4e487b7100000000000000000000000000000000000000000000000000000000600052604160045260246000fd5b611ce982611ca0565b810181811067ffffffffffffffff82111715611d0857611d07611cb1565b5b80604052505050565b6000611d1b6118fd565b9050611d278282611ce0565b919050565b600067ffffffffffffffff821115611d4757611d46611cb1565b5b611d5082611ca0565b9050602081019050919050565b82818337600083830152505050565b6000611d7f611d7a84611d2c565b611d11565b905082815260208101848484011115611d9b57611d9a611c9b565b5b611da6848285611d5d565b509392505050565b600082601f830112611dc357611dc26119a5565b5b8135611dd3848260208601611d6c565b91505092915050565b60008060008060808587031215611df657611df5611907565b5b6000611e048782880161195a565b9450506020611e158782880161195a565b9350506040611e2687828801611990565b925050606085013567ffffffffffffffff811115611e4757611e4661190c565b5b611e5387828801611dae565b91505092959194509250565b611e6881611aef565b82525050565b6000602082019050611e836000830184611e5f565b92915050565b60008060408385031215611ea057611e9f611907565b5b6000611eae85828601611a2b565b9250506020611ebf8582860161195a565b9150509250929050565b600060208284031215611edf57611ede611907565b5b6000611eed84828501611990565b91505092915050565b60008083601f840112611f0c57611f0b6119a5565b5b8235905067ffffffffffffffff811115611f2957611f286119aa565b5b602083019150836020820283011115611f4557611f446119af565b5b9250929050565b60008083601f840112611f6257611f616119a5565b5b8235905067ffffffffffffffff811115611f7f57611f7e6119aa565b5b602083019150836020820283011115611f9b57611f9a6119af565b5b9250929050565b60008083601f840112611fb857611fb76119a5565b5b8235905067ffffffffffffffff811115611fd557611fd46119aa565b5b602083019150836020820283011115611ff157611ff06119af565b5b9250929050565b600080600080600080600080600060c08a8c03121561201a57612019611907565b5b60008a013567ffffffffffffffff8111156120385761203761190c565b5b6120448c828d01611ef6565b995099505060208a013567ffffffffffffffff8111156120675761206661190c565b5b6120738c828d01611f4c565b975097505060408a013567ffffffffffffffff8111156120965761209561190c565b5b6120a28c828d01611fa2565b955095505060606120b58c828d01611a2b565b93505060806120c68c828d01611a2b565b92505060a06120d78c828d01611990565b9150509295985092959850929598565b60008060008060008060008060a0898b03121561210757612106611907565b5b600089013567ffffffffffffffff8111156121255761212461190c565b5b6121318b828c01611ef6565b9850985050602089013567ffffffffffffffff8111156121545761215361190c565b5b6121608b828c01611f4c565b9650965050604089013567ffffffffffffffff8111156121835761218261190c565b5b61218f8b828c01611fa2565b945094505060606121a28b828c01611a2b565b92505060806121b38b828c01611a2b565b9150509295985092959890939650565b600067ffffffffffffffff8211156121de576121dd611cb1565b5b602082029050602081019050919050565b60006122026121fd846121c3565b611d11565b90508083825260208201905060208402830185811115612225576122246119af565b5b835b8181101561224e578061223a8882611990565b845260208401935050602081019050612227565b5050509392505050565b600082601f83011261226d5761226c6119a5565b5b813561227d8482602086016121ef565b91505092915050565b600080600080600060a086880312156122a2576122a1611907565b5b60006122b08882890161195a565b95505060206122c18882890161195a565b945050604086013567ffffffffffffffff8111156122e2576122e161190c565b5b6122ee88828901612258565b935050606086013567ffffffffffffffff81111561230f5761230e61190c565b5b61231b88828901612258565b925050608086013567ffffffffffffffff81111561233c5761233b61190c565b5b61234888828901611dae565b9150509295509295909350565b61235e8161196f565b82525050565b60006020820190506123796000830184612355565b92915050565b600080600080600060a0868803121561239b5761239a611907565b5b60006123a98882890161195a565b95505060206123ba8882890161195a565b94505060406123cb88828901611990565b93505060606123dc88828901611990565b925050608086013567ffffffffffffffff8111156123fd576123fc61190c565b5b61240988828901611dae565b9150509295509295909350565b61241f81611931565b82525050565b600082825260208201905092915050565b60006124428385612425565b935061244f838584611d5d565b61245883611ca0565b840190509392505050565b600060a0820190506124786000830189612416565b6124856020830188612355565b8181036040830152612498818688612436565b90506124a76060830185611baa565b6124b46080830184612355565b979650505050505050565b600082825260208201905092915050565b7f416363657373436f6e74726f6c3a2063616e206f6e6c792072656e6f756e636560008201527f20726f6c657320666f722073656c660000000000000000000000000000000000602082015250565b600061252c602f836124bf565b9150612537826124d0565b604082019050919050565b6000602082019050818103600083015261255b8161251f565b9050919050565b7f54696d656c6f636b436f6e74726f6c6c65723a2063616c6c6572206d7573742060008201527f62652074696d656c6f636b000000000000000000000000000000000000000000602082015250565b60006125be602b836124bf565b91506125c982612562565b604082019050919050565b600060208201905081810360008301526125ed816125b1565b9050919050565b60006040820190506126096000830185612355565b6126166020830184612355565b9392505050565b600060a0820190506126326000830189612416565b61263f6020830188612355565b8181036040830152612652818688612436565b90506126616060830185611baa565b61266e6080830184611baa565b979650505050505050565b7f54696d656c6f636b436f6e74726f6c6c65723a206c656e677468206d69736d6160008201527f7463680000000000000000000000000000000000000000000000000000000000602082015250565b60006126d56023836124bf565b91506126e082612679565b604082019050919050565b60006020820190508181036000830152612704816126c8565b9050919050565b7f4e487b7100000000000000000000000000000000000000000000000000000000600052603260045260246000fd5b6000602082840312156127505761274f611907565b5b600061275e8482850161195a565b91505092915050565b600080fd5b600080fd5b600080fd5b6000808335600160200384360303811261279357612792612767565b5b80840192508235915067ffffffffffffffff8211156127b5576127b461276c565b5b6020830192506001820236038313156127d1576127d0612771565b5b509250929050565b7f4e487b7100000000000000000000000000000000000000000000000000000000600052601160045260246000fd5b60006128138261196f565b91507fffffffffffffffffffffffffffffffffffffffffffffffffffffffffffffffff821415612846576128456127d9565b5b600182019050919050565b600082825260208201905092915050565b6000819050919050565b61287581611931565b82525050565b6000612887838361286c565b60208301905092915050565b60006128a2602084018461195a565b905092915050565b6000602082019050919050565b60006128c38385612851565b93506128ce82612862565b8060005b85811015612907576128e48284612893565b6128ee888261287b565b97506128f9836128aa565b9250506001810190506128d2565b5085925050509392505050565b600082825260208201905092915050565b600080fd5b60006129368385612914565b93507f07ffffffffffffffffffffffffffffffffffffffffffffffffffffffffffffff83111561296957612968612925565b5b60208302925061297a838584611d5d565b82840190509392505050565b600082825260208201905092915050565b6000819050919050565b600082825260208201905092915050565b60006129be83856129a1565b93506129cb838584611d5d565b6129d483611ca0565b840190509392505050565b60006129ec8484846129b2565b90509392505050565b600080fd5b600080fd5b600080fd5b60008083356001602003843603038112612a2157612a206129ff565b5b83810192508235915060208301925067ffffffffffffffff821115612a4957612a486129f5565b5b600182023603841315612a5f57612a5e6129fa565b5b509250929050565b6000602082019050919050565b6000612a808385612986565b935083602084028501612a9284612997565b8060005b87811015612ad8578484038952612aad8284612a04565b612ab88682846129df565b9550612ac384612a67565b935060208b019a505050600181019050612a96565b50829750879450505050509392505050565b600060a0820190508181036000830152612b05818a8c6128b7565b90508181036020830152612b1a81888a61292a565b90508181036040830152612b2f818688612a74565b9050612b3e6060830185611baa565b612b4b6080830184611baa565b9998505050505050505050565b7f54696d656c6f636b436f6e74726f6c6c65723a206f7065726174696f6e20636160008201527f6e6e6f742062652063616e63656c6c6564000000000000000000000000000000602082015250565b6000612bb46031836124bf565b9150612bbf82612b58565b604082019050919050565b60006020820190508181036000830152612be381612ba7565b9050919050565b7f54696d656c6f636b436f6e74726f6c6c65723a206f7065726174696f6e20616c60008201527f7265616479207363686564756c65640000000000000000000000000000000000602082015250565b6000612c46602f836124bf565b9150612c5182612bea565b604082019050919050565b60006020820190508181036000830152612c7581612c39565b9050919050565b7f54696d656c6f636b436f6e74726f6c6c65723a20696e73756666696369656e7460008201527f2064656c61790000000000000000000000000000000000000000000000000000602082015250565b6000612cd86026836124bf565b9150612ce382612c7c565b604082019050919050565b60006020820190508181036000830152612d0781612ccb565b9050919050565b6000612d198261196f565b9150612d248361196f565b9250827fffffffffffffffffffffffffffffffffffffffffffffffffffffffffffffffff03821115612d5957612d586127d9565b5b828201905092915050565b600081905092915050565b7f416363657373436f6e74726f6c3a206163636f756e7420000000000000000000600082015250565b6000612da5601783612d64565b9150612db082612d6f565b601782019050919050565b600081519050919050565b60005b83811015612de4578082015181840152602081019050612dc9565b83811115612df3576000848401525b50505050565b6000612e0482612dbb565b612e0e8185612d64565b9350612e1e818560208601612dc6565b80840191505092915050565b7f206973206d697373696e6720726f6c6520000000000000000000000000000000600082015250565b6000612e60601183612d64565b9150612e6b82612e2a565b601182019050919050565b6000612e8182612d98565b9150612e8d8285612df9565b9150612e9882612e53565b9150612ea48284612df9565b91508190509392505050565b6000612ebb82612dbb565b612ec581856124bf565b9350612ed5818560208601612dc6565b612ede81611ca0565b840191505092915050565b60006020820190508181036000830152612f038184612eb0565b905092915050565b7f54696d656c6f636b436f6e74726f6c6c65723a206f7065726174696f6e20697360008201527f206e6f7420726561647900000000000000000000000000000000000000000000602082015250565b6000612f67602a836124bf565b9150612f7282612f0b565b604082019050919050565b60006020820190508181036000830152612f9681612f5a565b9050919050565b7f54696d656c6f636b436f6e74726f6c6c65723a206d697373696e67206465706560008201527f6e64656e63790000000000000000000000000000000000000000000000000000602082015250565b6000612ff96026836124bf565b915061300482612f9d565b604082019050919050565b6000602082019050818103600083015261302881612fec565b9050919050565b600081905092915050565b6000613046838561302f565b9350613053838584611d5d565b82840190509392505050565b600061306c82848661303a565b91508190509392505050565b7f54696d656c6f636b436f6e74726f6c6c65723a20756e6465726c79696e67207460008201527f72616e73616374696f6e20726576657274656400000000000000000000000000602082015250565b60006130d46033836124bf565b91506130df82613078565b604082019050919050565b60006020820190508181036000830152613103816130c7565b9050919050565b600060608201905061311f6000830187612416565b61312c6020830186612355565b818103604083015261313f818486612436565b905095945050505050565b60006131558261196f565b91506131608361196f565b9250817fffffffffffffffffffffffffffffffffffffffffffffffffffffffffffffffff0483118215151615613199576131986127d9565b5b828202905092915050565b60006131af8261196f565b915060008214156131c3576131c26127d9565b5b600182039050919050565b7f537472696e67733a20686578206c656e67746820696e73756666696369656e74600082015250565b60006132046020836124bf565b915061320f826131ce565b602082019050919050565b60006020820190508181036000830152613233816131f7565b905091905056fea2646970667358221220ffcb6923e1cf7784251414383d7cc6f89a9a666d0924efbcb25803ffe6c1bd2464736f6c63430008080033",
  "linkReferences": {},
  "deployedLinkReferences": {}
}