{
  "_format": "hh-sol-artifact-1",
  "contractName": "ROSENFT",
  "sourceName": "contracts/governance_standard/nft.sol",
  "abi": [
    {
      "inputs": [],
      "stateMutability": "nonpayable",
      "type": "constructor"
    },
    {
      "anonymous": false,
      "inputs": [
        {
          "indexed": true,
          "internalType": "address",
          "name": "account",
          "type": "address"
        },
        {
          "indexed": true,
          "internalType": "address",
          "name": "operator",
          "type": "address"
        },
        {
          "indexed": false,
          "internalType": "bool",
          "name": "approved",
          "type": "bool"
        }
      ],
      "name": "ApprovalForAll",
      "type": "event"
    },
    {
      "anonymous": false,
      "inputs": [
        {
          "indexed": true,
          "internalType": "address",
          "name": "previousOwner",
          "type": "address"
        },
        {
          "indexed": true,
          "internalType": "address",
          "name": "newOwner",
          "type": "address"
        }
      ],
      "name": "OwnershipTransferred",
      "type": "event"
    },
    {
      "anonymous": false,
      "inputs": [
        {
          "indexed": false,
          "internalType": "address",
          "name": "account",
          "type": "address"
        }
      ],
      "name": "Paused",
      "type": "event"
    },
    {
      "anonymous": false,
      "inputs": [
        {
          "indexed": true,
          "internalType": "address",
          "name": "operator",
          "type": "address"
        },
        {
          "indexed": true,
          "internalType": "address",
          "name": "from",
          "type": "address"
        },
        {
          "indexed": true,
          "internalType": "address",
          "name": "to",
          "type": "address"
        },
        {
          "indexed": false,
          "internalType": "uint256[]",
          "name": "ids",
          "type": "uint256[]"
        },
        {
          "indexed": false,
          "internalType": "uint256[]",
          "name": "values",
          "type": "uint256[]"
        }
      ],
      "name": "TransferBatch",
      "type": "event"
    },
    {
      "anonymous": false,
      "inputs": [
        {
          "indexed": true,
          "internalType": "address",
          "name": "operator",
          "type": "address"
        },
        {
          "indexed": true,
          "internalType": "address",
          "name": "from",
          "type": "address"
        },
        {
          "indexed": true,
          "internalType": "address",
          "name": "to",
          "type": "address"
        },
        {
          "indexed": false,
          "internalType": "uint256",
          "name": "id",
          "type": "uint256"
        },
        {
          "indexed": false,
          "internalType": "uint256",
          "name": "value",
          "type": "uint256"
        }
      ],
      "name": "TransferSingle",
      "type": "event"
    },
    {
      "anonymous": false,
      "inputs": [
        {
          "indexed": false,
          "internalType": "string",
          "name": "value",
          "type": "string"
        },
        {
          "indexed": true,
          "internalType": "uint256",
          "name": "id",
          "type": "uint256"
        }
      ],
      "name": "URI",
      "type": "event"
    },
    {
      "anonymous": false,
      "inputs": [
        {
          "indexed": false,
          "internalType": "address",
          "name": "account",
          "type": "address"
        }
      ],
      "name": "Unpaused",
      "type": "event"
    },
    {
      "inputs": [
        {
          "internalType": "address",
          "name": "account",
          "type": "address"
        },
        {
          "internalType": "uint256",
          "name": "id",
          "type": "uint256"
        }
      ],
      "name": "balanceOf",
      "outputs": [
        {
          "internalType": "uint256",
          "name": "",
          "type": "uint256"
        }
      ],
      "stateMutability": "view",
      "type": "function"
    },
    {
      "inputs": [
        {
          "internalType": "address[]",
          "name": "accounts",
          "type": "address[]"
        },
        {
          "internalType": "uint256[]",
          "name": "ids",
          "type": "uint256[]"
        }
      ],
      "name": "balanceOfBatch",
      "outputs": [
        {
          "internalType": "uint256[]",
          "name": "",
          "type": "uint256[]"
        }
      ],
      "stateMutability": "view",
      "type": "function"
    },
    {
      "inputs": [
        {
          "internalType": "address",
          "name": "account",
          "type": "address"
        },
        {
          "internalType": "uint256",
          "name": "id",
          "type": "uint256"
        },
        {
          "internalType": "uint256",
          "name": "value",
          "type": "uint256"
        }
      ],
      "name": "burn",
      "outputs": [],
      "stateMutability": "nonpayable",
      "type": "function"
    },
    {
      "inputs": [
        {
          "internalType": "address",
          "name": "account",
          "type": "address"
        },
        {
          "internalType": "uint256[]",
          "name": "ids",
          "type": "uint256[]"
        },
        {
          "internalType": "uint256[]",
          "name": "values",
          "type": "uint256[]"
        }
      ],
      "name": "burnBatch",
      "outputs": [],
      "stateMutability": "nonpayable",
      "type": "function"
    },
    {
      "inputs": [
        {
          "internalType": "uint256",
          "name": "id",
          "type": "uint256"
        }
      ],
      "name": "exists",
      "outputs": [
        {
          "internalType": "bool",
          "name": "",
          "type": "bool"
        }
      ],
      "stateMutability": "view",
      "type": "function"
    },
    {
      "inputs": [
        {
          "internalType": "address",
          "name": "account",
          "type": "address"
        },
        {
          "internalType": "address",
          "name": "operator",
          "type": "address"
        }
      ],
      "name": "isApprovedForAll",
      "outputs": [
        {
          "internalType": "bool",
          "name": "",
          "type": "bool"
        }
      ],
      "stateMutability": "view",
      "type": "function"
    },
    {
      "inputs": [
        {
          "internalType": "address",
          "name": "account",
          "type": "address"
        },
        {
          "internalType": "uint256",
          "name": "id",
          "type": "uint256"
        },
        {
          "internalType": "uint256",
          "name": "amount",
          "type": "uint256"
        },
        {
          "internalType": "bytes",
          "name": "data",
          "type": "bytes"
        }
      ],
      "name": "mint",
      "outputs": [],
      "stateMutability": "nonpayable",
      "type": "function"
    },
    {
      "inputs": [
        {
          "internalType": "address",
          "name": "to",
          "type": "address"
        },
        {
          "internalType": "uint256[]",
          "name": "ids",
          "type": "uint256[]"
        },
        {
          "internalType": "uint256[]",
          "name": "amounts",
          "type": "uint256[]"
        },
        {
          "internalType": "bytes",
          "name": "data",
          "type": "bytes"
        }
      ],
      "name": "mintBatch",
      "outputs": [],
      "stateMutability": "nonpayable",
      "type": "function"
    },
    {
      "inputs": [],
      "name": "owner",
      "outputs": [
        {
          "internalType": "address",
          "name": "",
          "type": "address"
        }
      ],
      "stateMutability": "view",
      "type": "function"
    },
    {
      "inputs": [],
      "name": "pause",
      "outputs": [],
      "stateMutability": "nonpayable",
      "type": "function"
    },
    {
      "inputs": [],
      "name": "paused",
      "outputs": [
        {
          "internalType": "bool",
          "name": "",
          "type": "bool"
        }
      ],
      "stateMutability": "view",
      "type": "function"
    },
    {
      "inputs": [],
      "name": "renounceOwnership",
      "outputs": [],
      "stateMutability": "nonpayable",
      "type": "function"
    },
    {
      "inputs": [
        {
          "internalType": "address",
          "name": "from",
          "type": "address"
        },
        {
          "internalType": "address",
          "name": "to",
          "type": "address"
        },
        {
          "internalType": "uint256[]",
          "name": "ids",
          "type": "uint256[]"
        },
        {
          "internalType": "uint256[]",
          "name": "amounts",
          "type": "uint256[]"
        },
        {
          "internalType": "bytes",
          "name": "data",
          "type": "bytes"
        }
      ],
      "name": "safeBatchTransferFrom",
      "outputs": [],
      "stateMutability": "nonpayable",
      "type": "function"
    },
    {
      "inputs": [
        {
          "internalType": "address",
          "name": "from",
          "type": "address"
        },
        {
          "internalType": "address",
          "name": "to",
          "type": "address"
        },
        {
          "internalType": "uint256",
          "name": "id",
          "type": "uint256"
        },
        {
          "internalType": "uint256",
          "name": "amount",
          "type": "uint256"
        },
        {
          "internalType": "bytes",
          "name": "data",
          "type": "bytes"
        }
      ],
      "name": "safeTransferFrom",
      "outputs": [],
      "stateMutability": "nonpayable",
      "type": "function"
    },
    {
      "inputs": [
        {
          "internalType": "address",
          "name": "operator",
          "type": "address"
        },
        {
          "internalType": "bool",
          "name": "approved",
          "type": "bool"
        }
      ],
      "name": "setApprovalForAll",
      "outputs": [],
      "stateMutability": "nonpayable",
      "type": "function"
    },
    {
      "inputs": [
        {
          "internalType": "string",
          "name": "newuri",
          "type": "string"
        }
      ],
      "name": "setURI",
      "outputs": [],
      "stateMutability": "nonpayable",
      "type": "function"
    },
    {
      "inputs": [
        {
          "internalType": "bytes4",
          "name": "interfaceId",
          "type": "bytes4"
        }
      ],
      "name": "supportsInterface",
      "outputs": [
        {
          "internalType": "bool",
          "name": "",
          "type": "bool"
        }
      ],
      "stateMutability": "view",
      "type": "function"
    },
    {
      "inputs": [
        {
          "internalType": "uint256",
          "name": "id",
          "type": "uint256"
        }
      ],
      "name": "totalSupply",
      "outputs": [
        {
          "internalType": "uint256",
          "name": "",
          "type": "uint256"
        }
      ],
      "stateMutability": "view",
      "type": "function"
    },
    {
      "inputs": [
        {
          "internalType": "address",
          "name": "newOwner",
          "type": "address"
        }
      ],
      "name": "transferOwnership",
      "outputs": [],
      "stateMutability": "nonpayable",
      "type": "function"
    },
    {
      "inputs": [],
      "name": "unpause",
      "outputs": [],
      "stateMutability": "nonpayable",
      "type": "function"
    },
    {
      "inputs": [
        {
          "internalType": "uint256",
          "name": "",
          "type": "uint256"
        }
      ],
      "name": "uri",
      "outputs": [
        {
          "internalType": "string",
          "name": "",
          "type": "string"
        }
      ],
      "stateMutability": "view",
      "type": "function"
    }
  ],
  "bytecode": "0x60806040523480156200001157600080fd5b50604051806080016040528060598152602001620045b3605991396200003d816200007f60201b60201c565b506200005e620000526200009b60201b60201c565b620000a360201b60201c565b6000600360146101000a81548160ff0219169083151502179055506200027e565b80600290805190602001906200009792919062000169565b5050565b600033905090565b6000600360009054906101000a900473ffffffffffffffffffffffffffffffffffffffff16905081600360006101000a81548173ffffffffffffffffffffffffffffffffffffffff021916908373ffffffffffffffffffffffffffffffffffffffff1602179055508173ffffffffffffffffffffffffffffffffffffffff168173ffffffffffffffffffffffffffffffffffffffff167f8be0079c531659141344cd1fd0a4f28419497f9722a3daafe3b4186f6b6457e060405160405180910390a35050565b828054620001779062000248565b90600052602060002090601f0160209004810192826200019b5760008555620001e7565b82601f10620001b657805160ff1916838001178555620001e7565b82800160010185558215620001e7579182015b82811115620001e6578251825591602001919060010190620001c9565b5b509050620001f69190620001fa565b5090565b5b8082111562000215576000816000905550600101620001fb565b5090565b7f4e487b7100000000000000000000000000000000000000000000000000000000600052602260045260246000fd5b600060028204905060018216806200026157607f821691505b6020821081141562000278576200027762000219565b5b50919050565b614325806200028e6000396000f3fe608060405234801561001057600080fd5b50600436106101365760003560e01c80636b20c454116100b8578063a22cb4651161007c578063a22cb46514610311578063bd85b0391461032d578063e985e9c51461035d578063f242432a1461038d578063f2fde38b146103a9578063f5298aca146103c557610136565b80636b20c454146102a7578063715018a6146102c3578063731133e9146102cd5780638456cb59146102e95780638da5cb5b146102f357610136565b80632eb2c2d6116100ff5780632eb2c2d6146102035780633f4ba83a1461021f5780634e1273f4146102295780634f558e79146102595780635c975abb1461028957610136565b8062fdd58e1461013b57806301ffc9a71461016b57806302fe53051461019b5780630e89341c146101b75780631f7fdffa146101e7575b600080fd5b610155600480360381019061015091906129ad565b6103e1565b60405161016291906129fc565b60405180910390f35b61018560048036038101906101809190612a6f565b6104aa565b6040516101929190612ab7565b60405180910390f35b6101b560048036038101906101b09190612c18565b61058c565b005b6101d160048036038101906101cc9190612c61565b610614565b6040516101de9190612d16565b60405180910390f35b61020160048036038101906101fc9190612ea1565b6106a8565b005b61021d60048036038101906102189190612f5c565b610736565b005b6102276107d7565b005b610243600480360381019061023e91906130ee565b61085d565b6040516102509190613224565b60405180910390f35b610273600480360381019061026e9190612c61565b610976565b6040516102809190612ab7565b60405180910390f35b61029161098a565b60405161029e9190612ab7565b60405180910390f35b6102c160048036038101906102bc9190613246565b6109a1565b005b6102cb610a3e565b005b6102e760048036038101906102e291906132d1565b610ac6565b005b6102f1610b54565b005b6102fb610bda565b6040516103089190613363565b60405180910390f35b61032b600480360381019061032691906133aa565b610c04565b005b61034760048036038101906103429190612c61565b610c1a565b60405161035491906129fc565b60405180910390f35b610377600480360381019061037291906133ea565b610c37565b6040516103849190612ab7565b60405180910390f35b6103a760048036038101906103a2919061342a565b610ccb565b005b6103c360048036038101906103be91906134c1565b610d6c565b005b6103df60048036038101906103da91906134ee565b610e64565b005b60008073ffffffffffffffffffffffffffffffffffffffff168373ffffffffffffffffffffffffffffffffffffffff161415610452576040517f08c379a0000000000000000000000000000000000000000000000000000000008152600401610449906135b3565b60405180910390fd5b60008083815260200190815260200160002060008473ffffffffffffffffffffffffffffffffffffffff1673ffffffffffffffffffffffffffffffffffffffff16815260200190815260200160002054905092915050565b60007fd9b67a26000000000000000000000000000000000000000000000000000000007bffffffffffffffffffffffffffffffffffffffffffffffffffffffff1916827bffffffffffffffffffffffffffffffffffffffffffffffffffffffff1916148061057557507f0e89341c000000000000000000000000000000000000000000000000000000007bffffffffffffffffffffffffffffffffffffffffffffffffffffffff1916827bffffffffffffffffffffffffffffffffffffffffffffffffffffffff1916145b80610585575061058482610f01565b5b9050919050565b610594610f6b565b73ffffffffffffffffffffffffffffffffffffffff166105b2610bda565b73ffffffffffffffffffffffffffffffffffffffff1614610608576040517f08c379a00000000000000000000000000000000000000000000000000000000081526004016105ff9061361f565b60405180910390fd5b61061181610f73565b50565b6060600280546106239061366e565b80601f016020809104026020016040519081016040528092919081815260200182805461064f9061366e565b801561069c5780601f106106715761010080835404028352916020019161069c565b820191906000526020600020905b81548152906001019060200180831161067f57829003601f168201915b50505050509050919050565b6106b0610f6b565b73ffffffffffffffffffffffffffffffffffffffff166106ce610bda565b73ffffffffffffffffffffffffffffffffffffffff1614610724576040517f08c379a000000000000000000000000000000000000000000000000000000000815260040161071b9061361f565b60405180910390fd5b61073084848484610f8d565b50505050565b61073e610f6b565b73ffffffffffffffffffffffffffffffffffffffff168573ffffffffffffffffffffffffffffffffffffffff16148061078457506107838561077e610f6b565b610c37565b5b6107c3576040517f08c379a00000000000000000000000000000000000000000000000000000000081526004016107ba90613712565b60405180910390fd5b6107d085858585856111ba565b5050505050565b6107df610f6b565b73ffffffffffffffffffffffffffffffffffffffff166107fd610bda565b73ffffffffffffffffffffffffffffffffffffffff1614610853576040517f08c379a000000000000000000000000000000000000000000000000000000000815260040161084a9061361f565b60405180910390fd5b61085b6114dc565b565b606081518351146108a3576040517f08c379a000000000000000000000000000000000000000000000000000000000815260040161089a906137a4565b60405180910390fd5b6000835167ffffffffffffffff8111156108c0576108bf612aed565b5b6040519080825280602002602001820160405280156108ee5781602001602082028036833780820191505090505b50905060005b845181101561096b5761093b858281518110610913576109126137c4565b5b602002602001015185838151811061092e5761092d6137c4565b5b60200260200101516103e1565b82828151811061094e5761094d6137c4565b5b6020026020010181815250508061096490613822565b90506108f4565b508091505092915050565b60008061098283610c1a565b119050919050565b6000600360149054906101000a900460ff16905090565b6109a9610f6b565b73ffffffffffffffffffffffffffffffffffffffff168373ffffffffffffffffffffffffffffffffffffffff1614806109ef57506109ee836109e9610f6b565b610c37565b5b610a2e576040517f08c379a0000000000000000000000000000000000000000000000000000000008152600401610a25906138dd565b60405180910390fd5b610a3983838361157e565b505050565b610a46610f6b565b73ffffffffffffffffffffffffffffffffffffffff16610a64610bda565b73ffffffffffffffffffffffffffffffffffffffff1614610aba576040517f08c379a0000000000000000000000000000000000000000000000000000000008152600401610ab19061361f565b60405180910390fd5b610ac4600061184d565b565b610ace610f6b565b73ffffffffffffffffffffffffffffffffffffffff16610aec610bda565b73ffffffffffffffffffffffffffffffffffffffff1614610b42576040517f08c379a0000000000000000000000000000000000000000000000000000000008152600401610b399061361f565b60405180910390fd5b610b4e84848484611913565b50505050565b610b5c610f6b565b73ffffffffffffffffffffffffffffffffffffffff16610b7a610bda565b73ffffffffffffffffffffffffffffffffffffffff1614610bd0576040517f08c379a0000000000000000000000000000000000000000000000000000000008152600401610bc79061361f565b60405180910390fd5b610bd8611ac4565b565b6000600360009054906101000a900473ffffffffffffffffffffffffffffffffffffffff16905090565b610c16610c0f610f6b565b8383611b67565b5050565b600060046000838152602001908152602001600020549050919050565b6000600160008473ffffffffffffffffffffffffffffffffffffffff1673ffffffffffffffffffffffffffffffffffffffff16815260200190815260200160002060008373ffffffffffffffffffffffffffffffffffffffff1673ffffffffffffffffffffffffffffffffffffffff16815260200190815260200160002060009054906101000a900460ff16905092915050565b610cd3610f6b565b73ffffffffffffffffffffffffffffffffffffffff168573ffffffffffffffffffffffffffffffffffffffff161480610d195750610d1885610d13610f6b565b610c37565b5b610d58576040517f08c379a0000000000000000000000000000000000000000000000000000000008152600401610d4f906138dd565b60405180910390fd5b610d658585858585611cd4565b5050505050565b610d74610f6b565b73ffffffffffffffffffffffffffffffffffffffff16610d92610bda565b73ffffffffffffffffffffffffffffffffffffffff1614610de8576040517f08c379a0000000000000000000000000000000000000000000000000000000008152600401610ddf9061361f565b60405180910390fd5b600073ffffffffffffffffffffffffffffffffffffffff168173ffffffffffffffffffffffffffffffffffffffff161415610e58576040517f08c379a0000000000000000000000000000000000000000000000000000000008152600401610e4f9061396f565b60405180910390fd5b610e618161184d565b50565b610e6c610f6b565b73ffffffffffffffffffffffffffffffffffffffff168373ffffffffffffffffffffffffffffffffffffffff161480610eb25750610eb183610eac610f6b565b610c37565b5b610ef1576040517f08c379a0000000000000000000000000000000000000000000000000000000008152600401610ee8906138dd565b60405180910390fd5b610efc838383611f70565b505050565b60007f01ffc9a7000000000000000000000000000000000000000000000000000000007bffffffffffffffffffffffffffffffffffffffffffffffffffffffff1916827bffffffffffffffffffffffffffffffffffffffffffffffffffffffff1916149050919050565b600033905090565b8060029080519060200190610f89929190612862565b5050565b600073ffffffffffffffffffffffffffffffffffffffff168473ffffffffffffffffffffffffffffffffffffffff161415610ffd576040517f08c379a0000000000000000000000000000000000000000000000000000000008152600401610ff490613a01565b60405180910390fd5b8151835114611041576040517f08c379a000000000000000000000000000000000000000000000000000000000815260040161103890613a93565b60405180910390fd5b600061104b610f6b565b905061105c816000878787876121b7565b60005b84518110156111155783818151811061107b5761107a6137c4565b5b6020026020010151600080878481518110611099576110986137c4565b5b6020026020010151815260200190815260200160002060008873ffffffffffffffffffffffffffffffffffffffff1673ffffffffffffffffffffffffffffffffffffffff16815260200190815260200160002060008282546110fb9190613ab3565b92505081905550808061110d90613822565b91505061105f565b508473ffffffffffffffffffffffffffffffffffffffff16600073ffffffffffffffffffffffffffffffffffffffff168273ffffffffffffffffffffffffffffffffffffffff167f4a39dc06d4c0dbc64b70af90fd698a233a518aa5d07e595d983b8c0526c8f7fb878760405161118d929190613b09565b60405180910390a46111a481600087878787612215565b6111b38160008787878761221d565b5050505050565b81518351146111fe576040517f08c379a00000000000000000000000000000000000000000000000000000000081526004016111f590613a93565b60405180910390fd5b600073ffffffffffffffffffffffffffffffffffffffff168473ffffffffffffffffffffffffffffffffffffffff16141561126e576040517f08c379a000000000000000000000000000000000000000000000000000000000815260040161126590613bb2565b60405180910390fd5b6000611278610f6b565b90506112888187878787876121b7565b60005b84518110156114395760008582815181106112a9576112a86137c4565b5b6020026020010151905060008583815181106112c8576112c76137c4565b5b60200260200101519050600080600084815260200190815260200160002060008b73ffffffffffffffffffffffffffffffffffffffff1673ffffffffffffffffffffffffffffffffffffffff16815260200190815260200160002054905081811015611369576040517f08c379a000000000000000000000000000000000000000000000000000000000815260040161136090613c44565b60405180910390fd5b81810360008085815260200190815260200160002060008c73ffffffffffffffffffffffffffffffffffffffff1673ffffffffffffffffffffffffffffffffffffffff168152602001908152602001600020819055508160008085815260200190815260200160002060008b73ffffffffffffffffffffffffffffffffffffffff1673ffffffffffffffffffffffffffffffffffffffff168152602001908152602001600020600082825461141e9190613ab3565b925050819055505050508061143290613822565b905061128b565b508473ffffffffffffffffffffffffffffffffffffffff168673ffffffffffffffffffffffffffffffffffffffff168273ffffffffffffffffffffffffffffffffffffffff167f4a39dc06d4c0dbc64b70af90fd698a233a518aa5d07e595d983b8c0526c8f7fb87876040516114b0929190613b09565b60405180910390a46114c6818787878787612215565b6114d481878787878761221d565b505050505050565b6114e461098a565b611523576040517f08c379a000000000000000000000000000000000000000000000000000000000815260040161151a90613cb0565b60405180910390fd5b6000600360146101000a81548160ff0219169083151502179055507f5db9ee0a495bf2e6ff9c91a7834c1ba4fdd244a5e8aa4e537bd38aeae4b073aa611567610f6b565b6040516115749190613363565b60405180910390a1565b600073ffffffffffffffffffffffffffffffffffffffff168373ffffffffffffffffffffffffffffffffffffffff1614156115ee576040517f08c379a00000000000000000000000000000000000000000000000000000000081526004016115e590613d42565b60405180910390fd5b8051825114611632576040517f08c379a000000000000000000000000000000000000000000000000000000000815260040161162990613a93565b60405180910390fd5b600061163c610f6b565b905061165c818560008686604051806020016040528060008152506121b7565b60005b83518110156117a957600084828151811061167d5761167c6137c4565b5b60200260200101519050600084838151811061169c5761169b6137c4565b5b60200260200101519050600080600084815260200190815260200160002060008973ffffffffffffffffffffffffffffffffffffffff1673ffffffffffffffffffffffffffffffffffffffff1681526020019081526020016000205490508181101561173d576040517f08c379a000000000000000000000000000000000000000000000000000000000815260040161173490613dd4565b60405180910390fd5b81810360008085815260200190815260200160002060008a73ffffffffffffffffffffffffffffffffffffffff1673ffffffffffffffffffffffffffffffffffffffff1681526020019081526020016000208190555050505080806117a190613822565b91505061165f565b50600073ffffffffffffffffffffffffffffffffffffffff168473ffffffffffffffffffffffffffffffffffffffff168273ffffffffffffffffffffffffffffffffffffffff167f4a39dc06d4c0dbc64b70af90fd698a233a518aa5d07e595d983b8c0526c8f7fb8686604051611821929190613b09565b60405180910390a461184781856000868660405180602001604052806000815250612215565b50505050565b6000600360009054906101000a900473ffffffffffffffffffffffffffffffffffffffff16905081600360006101000a81548173ffffffffffffffffffffffffffffffffffffffff021916908373ffffffffffffffffffffffffffffffffffffffff1602179055508173ffffffffffffffffffffffffffffffffffffffff168173ffffffffffffffffffffffffffffffffffffffff167f8be0079c531659141344cd1fd0a4f28419497f9722a3daafe3b4186f6b6457e060405160405180910390a35050565b600073ffffffffffffffffffffffffffffffffffffffff168473ffffffffffffffffffffffffffffffffffffffff161415611983576040517f08c379a000000000000000000000000000000000000000000000000000000000815260040161197a90613a01565b60405180910390fd5b600061198d610f6b565b9050600061199a85612404565b905060006119a785612404565b90506119b8836000898585896121b7565b8460008088815260200190815260200160002060008973ffffffffffffffffffffffffffffffffffffffff1673ffffffffffffffffffffffffffffffffffffffff1681526020019081526020016000206000828254611a179190613ab3565b925050819055508673ffffffffffffffffffffffffffffffffffffffff16600073ffffffffffffffffffffffffffffffffffffffff168473ffffffffffffffffffffffffffffffffffffffff167fc3d58168c5ae7397731d063d5bbf3d657854427343f4c083240f7aacaa2d0f628989604051611a95929190613df4565b60405180910390a4611aac83600089858589612215565b611abb8360008989898961247e565b50505050505050565b611acc61098a565b15611b0c576040517f08c379a0000000000000000000000000000000000000000000000000000000008152600401611b0390613e69565b60405180910390fd5b6001600360146101000a81548160ff0219169083151502179055507f62e78cea01bee320cd4e420270b5ea74000d11b0c9f74754ebdbfc544b05a258611b50610f6b565b604051611b5d9190613363565b60405180910390a1565b8173ffffffffffffffffffffffffffffffffffffffff168373ffffffffffffffffffffffffffffffffffffffff161415611bd6576040517f08c379a0000000000000000000000000000000000000000000000000000000008152600401611bcd90613efb565b60405180910390fd5b80600160008573ffffffffffffffffffffffffffffffffffffffff1673ffffffffffffffffffffffffffffffffffffffff16815260200190815260200160002060008473ffffffffffffffffffffffffffffffffffffffff1673ffffffffffffffffffffffffffffffffffffffff16815260200190815260200160002060006101000a81548160ff0219169083151502179055508173ffffffffffffffffffffffffffffffffffffffff168373ffffffffffffffffffffffffffffffffffffffff167f17307eab39ab6107e8899845ad3d59bd9653f200f220920489ca2b5937696c3183604051611cc79190612ab7565b60405180910390a3505050565b600073ffffffffffffffffffffffffffffffffffffffff168473ffffffffffffffffffffffffffffffffffffffff161415611d44576040517f08c379a0000000000000000000000000000000000000000000000000000000008152600401611d3b90613bb2565b60405180910390fd5b6000611d4e610f6b565b90506000611d5b85612404565b90506000611d6885612404565b9050611d788389898585896121b7565b600080600088815260200190815260200160002060008a73ffffffffffffffffffffffffffffffffffffffff1673ffffffffffffffffffffffffffffffffffffffff16815260200190815260200160002054905085811015611e0f576040517f08c379a0000000000000000000000000000000000000000000000000000000008152600401611e0690613c44565b60405180910390fd5b85810360008089815260200190815260200160002060008b73ffffffffffffffffffffffffffffffffffffffff1673ffffffffffffffffffffffffffffffffffffffff168152602001908152602001600020819055508560008089815260200190815260200160002060008a73ffffffffffffffffffffffffffffffffffffffff1673ffffffffffffffffffffffffffffffffffffffff1681526020019081526020016000206000828254611ec49190613ab3565b925050819055508773ffffffffffffffffffffffffffffffffffffffff168973ffffffffffffffffffffffffffffffffffffffff168573ffffffffffffffffffffffffffffffffffffffff167fc3d58168c5ae7397731d063d5bbf3d657854427343f4c083240f7aacaa2d0f628a8a604051611f41929190613df4565b60405180910390a4611f57848a8a86868a612215565b611f65848a8a8a8a8a61247e565b505050505050505050565b600073ffffffffffffffffffffffffffffffffffffffff168373ffffffffffffffffffffffffffffffffffffffff161415611fe0576040517f08c379a0000000000000000000000000000000000000000000000000000000008152600401611fd790613d42565b60405180910390fd5b6000611fea610f6b565b90506000611ff784612404565b9050600061200484612404565b9050612024838760008585604051806020016040528060008152506121b7565b600080600087815260200190815260200160002060008873ffffffffffffffffffffffffffffffffffffffff1673ffffffffffffffffffffffffffffffffffffffff168152602001908152602001600020549050848110156120bb576040517f08c379a00000000000000000000000000000000000000000000000000000000081526004016120b290613dd4565b60405180910390fd5b84810360008088815260200190815260200160002060008973ffffffffffffffffffffffffffffffffffffffff1673ffffffffffffffffffffffffffffffffffffffff16815260200190815260200160002081905550600073ffffffffffffffffffffffffffffffffffffffff168773ffffffffffffffffffffffffffffffffffffffff168573ffffffffffffffffffffffffffffffffffffffff167fc3d58168c5ae7397731d063d5bbf3d657854427343f4c083240f7aacaa2d0f628989604051612188929190613df4565b60405180910390a46121ae84886000868660405180602001604052806000815250612215565b50505050505050565b6121bf61098a565b156121ff576040517f08c379a00000000000000000000000000000000000000000000000000000000081526004016121f690613e69565b60405180910390fd5b61220d868686868686612665565b505050505050565b505050505050565b61223c8473ffffffffffffffffffffffffffffffffffffffff16612837565b156123fc578373ffffffffffffffffffffffffffffffffffffffff1663bc197c8187878686866040518663ffffffff1660e01b8152600401612282959493929190613f70565b602060405180830381600087803b15801561229c57600080fd5b505af19250505080156122cd57506040513d601f19601f820116820180604052508101906122ca9190613fed565b60015b612373576122d9614027565b806308c379a0141561233657506122ee614049565b806122f95750612338565b806040517f08c379a000000000000000000000000000000000000000000000000000000000815260040161232d9190612d16565b60405180910390fd5b505b6040517f08c379a000000000000000000000000000000000000000000000000000000000815260040161236a90614151565b60405180910390fd5b63bc197c8160e01b7bffffffffffffffffffffffffffffffffffffffffffffffffffffffff1916817bffffffffffffffffffffffffffffffffffffffffffffffffffffffff1916146123fa576040517f08c379a00000000000000000000000000000000000000000000000000000000081526004016123f1906141e3565b60405180910390fd5b505b505050505050565b60606000600167ffffffffffffffff81111561242357612422612aed565b5b6040519080825280602002602001820160405280156124515781602001602082028036833780820191505090505b5090508281600081518110612469576124686137c4565b5b60200260200101818152505080915050919050565b61249d8473ffffffffffffffffffffffffffffffffffffffff16612837565b1561265d578373ffffffffffffffffffffffffffffffffffffffff1663f23a6e6187878686866040518663ffffffff1660e01b81526004016124e3959493929190614203565b602060405180830381600087803b1580156124fd57600080fd5b505af192505050801561252e57506040513d601f19601f8201168201806040525081019061252b9190613fed565b60015b6125d45761253a614027565b806308c379a01415612597575061254f614049565b8061255a5750612599565b806040517f08c379a000000000000000000000000000000000000000000000000000000000815260040161258e9190612d16565b60405180910390fd5b505b6040517f08c379a00000000000000000000000000000000000000000000000000000000081526004016125cb90614151565b60405180910390fd5b63f23a6e6160e01b7bffffffffffffffffffffffffffffffffffffffffffffffffffffffff1916817bffffffffffffffffffffffffffffffffffffffffffffffffffffffff19161461265b576040517f08c379a0000000000000000000000000000000000000000000000000000000008152600401612652906141e3565b60405180910390fd5b505b505050505050565b61267386868686868661285a565b600073ffffffffffffffffffffffffffffffffffffffff168573ffffffffffffffffffffffffffffffffffffffff1614156127255760005b8351811015612723578281815181106126c7576126c66137c4565b5b6020026020010151600460008684815181106126e6576126e56137c4565b5b60200260200101518152602001908152602001600020600082825461270b9190613ab3565b925050819055508061271c90613822565b90506126ab565b505b600073ffffffffffffffffffffffffffffffffffffffff168473ffffffffffffffffffffffffffffffffffffffff16141561282f5760005b835181101561282d57600084828151811061277b5761277a6137c4565b5b60200260200101519050600084838151811061279a576127996137c4565b5b60200260200101519050600060046000848152602001908152602001600020549050818110156127ff576040517f08c379a00000000000000000000000000000000000000000000000000000000081526004016127f6906142cf565b60405180910390fd5b81810360046000858152602001908152602001600020819055505050508061282690613822565b905061275d565b505b505050505050565b6000808273ffffffffffffffffffffffffffffffffffffffff163b119050919050565b505050505050565b82805461286e9061366e565b90600052602060002090601f01602090048101928261289057600085556128d7565b82601f106128a957805160ff19168380011785556128d7565b828001600101855582156128d7579182015b828111156128d65782518255916020019190600101906128bb565b5b5090506128e491906128e8565b5090565b5b808211156129015760008160009055506001016128e9565b5090565b6000604051905090565b600080fd5b600080fd5b600073ffffffffffffffffffffffffffffffffffffffff82169050919050565b600061294482612919565b9050919050565b61295481612939565b811461295f57600080fd5b50565b6000813590506129718161294b565b92915050565b6000819050919050565b61298a81612977565b811461299557600080fd5b50565b6000813590506129a781612981565b92915050565b600080604083850312156129c4576129c361290f565b5b60006129d285828601612962565b92505060206129e385828601612998565b9150509250929050565b6129f681612977565b82525050565b6000602082019050612a1160008301846129ed565b92915050565b60007fffffffff0000000000000000000000000000000000000000000000000000000082169050919050565b612a4c81612a17565b8114612a5757600080fd5b50565b600081359050612a6981612a43565b92915050565b600060208284031215612a8557612a8461290f565b5b6000612a9384828501612a5a565b91505092915050565b60008115159050919050565b612ab181612a9c565b82525050565b6000602082019050612acc6000830184612aa8565b92915050565b600080fd5b600080fd5b6000601f19601f8301169050919050565b7f4e487b7100000000000000000000000000000000000000000000000000000000600052604160045260246000fd5b612b2582612adc565b810181811067ffffffffffffffff82111715612b4457612b43612aed565b5b80604052505050565b6000612b57612905565b9050612b638282612b1c565b919050565b600067ffffffffffffffff821115612b8357612b82612aed565b5b612b8c82612adc565b9050602081019050919050565b82818337600083830152505050565b6000612bbb612bb684612b68565b612b4d565b905082815260208101848484011115612bd757612bd6612ad7565b5b612be2848285612b99565b509392505050565b600082601f830112612bff57612bfe612ad2565b5b8135612c0f848260208601612ba8565b91505092915050565b600060208284031215612c2e57612c2d61290f565b5b600082013567ffffffffffffffff811115612c4c57612c4b612914565b5b612c5884828501612bea565b91505092915050565b600060208284031215612c7757612c7661290f565b5b6000612c8584828501612998565b91505092915050565b600081519050919050565b600082825260208201905092915050565b60005b83811015612cc8578082015181840152602081019050612cad565b83811115612cd7576000848401525b50505050565b6000612ce882612c8e565b612cf28185612c99565b9350612d02818560208601612caa565b612d0b81612adc565b840191505092915050565b60006020820190508181036000830152612d308184612cdd565b905092915050565b600067ffffffffffffffff821115612d5357612d52612aed565b5b602082029050602081019050919050565b600080fd5b6000612d7c612d7784612d38565b612b4d565b90508083825260208201905060208402830185811115612d9f57612d9e612d64565b5b835b81811015612dc85780612db48882612998565b845260208401935050602081019050612da1565b5050509392505050565b600082601f830112612de757612de6612ad2565b5b8135612df7848260208601612d69565b91505092915050565b600067ffffffffffffffff821115612e1b57612e1a612aed565b5b612e2482612adc565b9050602081019050919050565b6000612e44612e3f84612e00565b612b4d565b905082815260208101848484011115612e6057612e5f612ad7565b5b612e6b848285612b99565b509392505050565b600082601f830112612e8857612e87612ad2565b5b8135612e98848260208601612e31565b91505092915050565b60008060008060808587031215612ebb57612eba61290f565b5b6000612ec987828801612962565b945050602085013567ffffffffffffffff811115612eea57612ee9612914565b5b612ef687828801612dd2565b935050604085013567ffffffffffffffff811115612f1757612f16612914565b5b612f2387828801612dd2565b925050606085013567ffffffffffffffff811115612f4457612f43612914565b5b612f5087828801612e73565b91505092959194509250565b600080600080600060a08688031215612f7857612f7761290f565b5b6000612f8688828901612962565b9550506020612f9788828901612962565b945050604086013567ffffffffffffffff811115612fb857612fb7612914565b5b612fc488828901612dd2565b935050606086013567ffffffffffffffff811115612fe557612fe4612914565b5b612ff188828901612dd2565b925050608086013567ffffffffffffffff81111561301257613011612914565b5b61301e88828901612e73565b9150509295509295909350565b600067ffffffffffffffff82111561304657613045612aed565b5b602082029050602081019050919050565b600061306a6130658461302b565b612b4d565b9050808382526020820190506020840283018581111561308d5761308c612d64565b5b835b818110156130b657806130a28882612962565b84526020840193505060208101905061308f565b5050509392505050565b600082601f8301126130d5576130d4612ad2565b5b81356130e5848260208601613057565b91505092915050565b600080604083850312156131055761310461290f565b5b600083013567ffffffffffffffff81111561312357613122612914565b5b61312f858286016130c0565b925050602083013567ffffffffffffffff8111156131505761314f612914565b5b61315c85828601612dd2565b9150509250929050565b600081519050919050565b600082825260208201905092915050565b6000819050602082019050919050565b61319b81612977565b82525050565b60006131ad8383613192565b60208301905092915050565b6000602082019050919050565b60006131d182613166565b6131db8185613171565b93506131e683613182565b8060005b838110156132175781516131fe88826131a1565b9750613209836131b9565b9250506001810190506131ea565b5085935050505092915050565b6000602082019050818103600083015261323e81846131c6565b905092915050565b60008060006060848603121561325f5761325e61290f565b5b600061326d86828701612962565b935050602084013567ffffffffffffffff81111561328e5761328d612914565b5b61329a86828701612dd2565b925050604084013567ffffffffffffffff8111156132bb576132ba612914565b5b6132c786828701612dd2565b9150509250925092565b600080600080608085870312156132eb576132ea61290f565b5b60006132f987828801612962565b945050602061330a87828801612998565b935050604061331b87828801612998565b925050606085013567ffffffffffffffff81111561333c5761333b612914565b5b61334887828801612e73565b91505092959194509250565b61335d81612939565b82525050565b60006020820190506133786000830184613354565b92915050565b61338781612a9c565b811461339257600080fd5b50565b6000813590506133a48161337e565b92915050565b600080604083850312156133c1576133c061290f565b5b60006133cf85828601612962565b92505060206133e085828601613395565b9150509250929050565b600080604083850312156134015761340061290f565b5b600061340f85828601612962565b925050602061342085828601612962565b9150509250929050565b600080600080600060a086880312156134465761344561290f565b5b600061345488828901612962565b955050602061346588828901612962565b945050604061347688828901612998565b935050606061348788828901612998565b925050608086013567ffffffffffffffff8111156134a8576134a7612914565b5b6134b488828901612e73565b9150509295509295909350565b6000602082840312156134d7576134d661290f565b5b60006134e584828501612962565b91505092915050565b6000806000606084860312156135075761350661290f565b5b600061351586828701612962565b935050602061352686828701612998565b925050604061353786828701612998565b9150509250925092565b7f455243313135353a2062616c616e636520717565727920666f7220746865207a60008201527f65726f2061646472657373000000000000000000000000000000000000000000602082015250565b600061359d602b83612c99565b91506135a882613541565b604082019050919050565b600060208201905081810360008301526135cc81613590565b9050919050565b7f4f776e61626c653a2063616c6c6572206973206e6f7420746865206f776e6572600082015250565b6000613609602083612c99565b9150613614826135d3565b602082019050919050565b60006020820190508181036000830152613638816135fc565b9050919050565b7f4e487b7100000000000000000000000000000000000000000000000000000000600052602260045260246000fd5b6000600282049050600182168061368657607f821691505b6020821081141561369a5761369961363f565b5b50919050565b7f455243313135353a207472616e736665722063616c6c6572206973206e6f742060008201527f6f776e6572206e6f7220617070726f7665640000000000000000000000000000602082015250565b60006136fc603283612c99565b9150613707826136a0565b604082019050919050565b6000602082019050818103600083015261372b816136ef565b9050919050565b7f455243313135353a206163636f756e747320616e6420696473206c656e67746860008201527f206d69736d617463680000000000000000000000000000000000000000000000602082015250565b600061378e602983612c99565b915061379982613732565b604082019050919050565b600060208201905081810360008301526137bd81613781565b9050919050565b7f4e487b7100000000000000000000000000000000000000000000000000000000600052603260045260246000fd5b7f4e487b7100000000000000000000000000000000000000000000000000000000600052601160045260246000fd5b600061382d82612977565b91507fffffffffffffffffffffffffffffffffffffffffffffffffffffffffffffffff8214156138605761385f6137f3565b5b600182019050919050565b7f455243313135353a2063616c6c6572206973206e6f74206f776e6572206e6f7260008201527f20617070726f7665640000000000000000000000000000000000000000000000602082015250565b60006138c7602983612c99565b91506138d28261386b565b604082019050919050565b600060208201905081810360008301526138f6816138ba565b9050919050565b7f4f776e61626c653a206e6577206f776e657220697320746865207a65726f206160008201527f6464726573730000000000000000000000000000000000000000000000000000602082015250565b6000613959602683612c99565b9150613964826138fd565b604082019050919050565b600060208201905081810360008301526139888161394c565b9050919050565b7f455243313135353a206d696e7420746f20746865207a65726f2061646472657360008201527f7300000000000000000000000000000000000000000000000000000000000000602082015250565b60006139eb602183612c99565b91506139f68261398f565b604082019050919050565b60006020820190508181036000830152613a1a816139de565b9050919050565b7f455243313135353a2069647320616e6420616d6f756e7473206c656e6774682060008201527f6d69736d61746368000000000000000000000000000000000000000000000000602082015250565b6000613a7d602883612c99565b9150613a8882613a21565b604082019050919050565b60006020820190508181036000830152613aac81613a70565b9050919050565b6000613abe82612977565b9150613ac983612977565b9250827fffffffffffffffffffffffffffffffffffffffffffffffffffffffffffffffff03821115613afe57613afd6137f3565b5b828201905092915050565b60006040820190508181036000830152613b2381856131c6565b90508181036020830152613b3781846131c6565b90509392505050565b7f455243313135353a207472616e7366657220746f20746865207a65726f20616460008201527f6472657373000000000000000000000000000000000000000000000000000000602082015250565b6000613b9c602583612c99565b9150613ba782613b40565b604082019050919050565b60006020820190508181036000830152613bcb81613b8f565b9050919050565b7f455243313135353a20696e73756666696369656e742062616c616e636520666f60008201527f72207472616e7366657200000000000000000000000000000000000000000000602082015250565b6000613c2e602a83612c99565b9150613c3982613bd2565b604082019050919050565b60006020820190508181036000830152613c5d81613c21565b9050919050565b7f5061757361626c653a206e6f7420706175736564000000000000000000000000600082015250565b6000613c9a601483612c99565b9150613ca582613c64565b602082019050919050565b60006020820190508181036000830152613cc981613c8d565b9050919050565b7f455243313135353a206275726e2066726f6d20746865207a65726f206164647260008201527f6573730000000000000000000000000000000000000000000000000000000000602082015250565b6000613d2c602383612c99565b9150613d3782613cd0565b604082019050919050565b60006020820190508181036000830152613d5b81613d1f565b9050919050565b7f455243313135353a206275726e20616d6f756e7420657863656564732062616c60008201527f616e636500000000000000000000000000000000000000000000000000000000602082015250565b6000613dbe602483612c99565b9150613dc982613d62565b604082019050919050565b60006020820190508181036000830152613ded81613db1565b9050919050565b6000604082019050613e0960008301856129ed565b613e1660208301846129ed565b9392505050565b7f5061757361626c653a2070617573656400000000000000000000000000000000600082015250565b6000613e53601083612c99565b9150613e5e82613e1d565b602082019050919050565b60006020820190508181036000830152613e8281613e46565b9050919050565b7f455243313135353a2073657474696e6720617070726f76616c2073746174757360008201527f20666f722073656c660000000000000000000000000000000000000000000000602082015250565b6000613ee5602983612c99565b9150613ef082613e89565b604082019050919050565b60006020820190508181036000830152613f1481613ed8565b9050919050565b600081519050919050565b600082825260208201905092915050565b6000613f4282613f1b565b613f4c8185613f26565b9350613f5c818560208601612caa565b613f6581612adc565b840191505092915050565b600060a082019050613f856000830188613354565b613f926020830187613354565b8181036040830152613fa481866131c6565b90508181036060830152613fb881856131c6565b90508181036080830152613fcc8184613f37565b90509695505050505050565b600081519050613fe781612a43565b92915050565b6000602082840312156140035761400261290f565b5b600061401184828501613fd8565b91505092915050565b60008160e01c9050919050565b600060033d11156140465760046000803e61404360005161401a565b90505b90565b600060443d1015614059576140dc565b614061612905565b60043d036004823e80513d602482011167ffffffffffffffff821117156140895750506140dc565b808201805167ffffffffffffffff8111156140a757505050506140dc565b80602083010160043d0385018111156140c45750505050506140dc565b6140d382602001850186612b1c565b82955050505050505b90565b7f455243313135353a207472616e7366657220746f206e6f6e204552433131353560008201527f526563656976657220696d706c656d656e746572000000000000000000000000602082015250565b600061413b603483612c99565b9150614146826140df565b604082019050919050565b6000602082019050818103600083015261416a8161412e565b9050919050565b7f455243313135353a204552433131353552656365697665722072656a6563746560008201527f6420746f6b656e73000000000000000000000000000000000000000000000000602082015250565b60006141cd602883612c99565b91506141d882614171565b604082019050919050565b600060208201905081810360008301526141fc816141c0565b9050919050565b600060a0820190506142186000830188613354565b6142256020830187613354565b61423260408301866129ed565b61423f60608301856129ed565b81810360808301526142518184613f37565b90509695505050505050565b7f455243313135353a206275726e20616d6f756e74206578636565647320746f7460008201527f616c537570706c79000000000000000000000000000000000000000000000000602082015250565b60006142b9602883612c99565b91506142c48261425d565b604082019050919050565b600060208201905081810360008301526142e8816142ac565b905091905056fea264697066735822122022630961f5a31f95309c818baa06ab67873784cf0e374ecc2c201e859b094d5c64736f6c6343000808003368747470733a2f2f697066732e696f2f697066732f6261667962656965766e7a7a7863746a646d61356d75677572647a72346164327a6e7471636b717a69326c3636746f6a3661366b77726f6b7162612f6d65746164617461",
  "linkReferences": {},
  "deployedLinkReferences": {}
}